{
  "_format": "hh3-artifact-1",
  "contractName": "Voting",
  "sourceName": "contracts/Voting.sol",
  "abi": [
    {
      "inputs": [
        {
          "internalType": "string[]",
          "name": "_candidates",
          "type": "string[]"
        }
      ],
      "stateMutability": "nonpayable",
      "type": "constructor"
    },
    {
      "inputs": [
        {
          "internalType": "uint256",
          "name": "",
          "type": "uint256"
        }
      ],
      "name": "candidateList",
      "outputs": [
        {
          "internalType": "string",
          "name": "",
          "type": "string"
        }
      ],
      "stateMutability": "view",
      "type": "function"
    },
    {
      "inputs": [
        {
          "internalType": "string",
          "name": "_candidate",
          "type": "string"
        }
      ],
      "name": "castVote",
      "outputs": [],
      "stateMutability": "nonpayable",
      "type": "function"
    },
    {
      "inputs": [
        {
          "internalType": "string",
          "name": "_candidate",
          "type": "string"
        }
      ],
      "name": "getVotes",
      "outputs": [
        {
          "internalType": "uint256",
          "name": "",
          "type": "uint256"
        }
      ],
      "stateMutability": "view",
      "type": "function"
    },
    {
      "inputs": [
        {
          "internalType": "address",
          "name": "",
          "type": "address"
        }
      ],
      "name": "hasVoted",
      "outputs": [
        {
          "internalType": "bool",
          "name": "",
          "type": "bool"
        }
      ],
      "stateMutability": "view",
      "type": "function"
    },
    {
      "inputs": [
        {
          "internalType": "string",
          "name": "",
          "type": "string"
        }
      ],
      "name": "votesReceived",
      "outputs": [
        {
          "internalType": "uint256",
          "name": "",
          "type": "uint256"
        }
      ],
      "stateMutability": "view",
      "type": "function"
    }
  ],
  "bytecode": "0x608060405234801561000f575f5ffd5b5060405161082d38038061082d83398101604081905261002e91610149565b8051610040905f906020840190610047565b50506103ab565b828054828255905f5260205f2090810192821561008b579160200282015b8281111561008b578251829061007b90826102f1565b5091602001919060010190610065565b5061009792915061009b565b5090565b80821115610097575f6100ae82826100b7565b5060010161009b565b5080546100c39061026d565b5f825580601f106100d2575050565b601f0160209004905f5260205f20908101906100ee91906100f1565b50565b5b80821115610097575f81556001016100f2565b634e487b7160e01b5f52604160045260245ffd5b604051601f8201601f191681016001600160401b038111828210171561014157610141610105565b604052919050565b5f60208284031215610159575f5ffd5b81516001600160401b0381111561016e575f5ffd5b8201601f8101841361017e575f5ffd5b80516001600160401b0381111561019757610197610105565b8060051b6101a760208201610119565b918252602081840181019290810190878411156101c2575f5ffd5b6020850192505b838310156102625782516001600160401b038111156101e6575f5ffd5b8501603f810189136101f6575f5ffd5b60208101516001600160401b0381111561021257610212610105565b610225601f8201601f1916602001610119565b8181526040838301018b1015610239575f5ffd5b8160408401602083015e5f602083830101528085525050506020820191506020830192506101c9565b979650505050505050565b600181811c9082168061028157607f821691505b60208210810361029f57634e487b7160e01b5f52602260045260245ffd5b50919050565b601f8211156102ec57805f5260205f20601f840160051c810160208510156102ca5750805b601f840160051c820191505b818110156102e9575f81556001016102d6565b50505b505050565b81516001600160401b0381111561030a5761030a610105565b61031e81610318845461026d565b846102a5565b6020601f821160018114610350575f83156103395750848201515b5f19600385901b1c1916600184901b1784556102e9565b5f84815260208120601f198516915b8281101561037f578785015182556020948501946001909201910161035f565b508482101561039c57868401515f19600387901b60f8161c191681555b50505050600190811b01905550565b610475806103b85f395ff3fe608060405234801561000f575f5ffd5b5060043610610055575f3560e01c806309eef43e14610059578063805265e5146100905780638d4b44d9146100b15780639cc2d993146100dc578063b13c744b146100f1575b5f5ffd5b61007b61006736600461028d565b60026020525f908152604090205460ff1681565b60405190151581526020015b60405180910390f35b6100a361009e3660046102ce565b610111565b604051908152602001610087565b6100a36100bf3660046102ce565b805160208183018101805160018252928201919093012091525481565b6100ef6100ea3660046102ce565b610138565b005b6101046100ff366004610381565b6101e8565b6040516100879190610398565b5f60018260405161012291906103cd565b9081526020016040518091039020549050919050565b335f9081526002602052604090205460ff161561019b5760405162461bcd60e51b815260206004820152601760248201527f596f75206861766520616c726561647920766f7465642e000000000000000000604482015260640160405180910390fd5b6001816040516101ab91906103cd565b9081526040519081900360200190208054905f6101c7836103e3565b9091555050335f908152600260205260409020805460ff1916600117905550565b5f81815481106101f6575f80fd5b905f5260205f20015f91509050805461020e90610407565b80601f016020809104026020016040519081016040528092919081815260200182805461023a90610407565b80156102855780601f1061025c57610100808354040283529160200191610285565b820191905f5260205f20905b81548152906001019060200180831161026857829003601f168201915b505050505081565b5f6020828403121561029d575f5ffd5b81356001600160a01b03811681146102b3575f5ffd5b9392505050565b634e487b7160e01b5f52604160045260245ffd5b5f602082840312156102de575f5ffd5b813567ffffffffffffffff8111156102f4575f5ffd5b8201601f81018413610304575f5ffd5b803567ffffffffffffffff81111561031e5761031e6102ba565b604051601f8201601f19908116603f0116810167ffffffffffffffff8111828210171561034d5761034d6102ba565b604052818152828201602001861015610364575f5ffd5b816020840160208301375f91810160200191909152949350505050565b5f60208284031215610391575f5ffd5b5035919050565b602081525f82518060208401528060208501604085015e5f604082850101526040601f19601f83011684010191505092915050565b5f82518060208501845e5f920191825250919050565b5f6001820161040057634e487b7160e01b5f52601160045260245ffd5b5060010190565b600181811c9082168061041b57607f821691505b60208210810361043957634e487b7160e01b5f52602260045260245ffd5b5091905056fea2646970667358221220c6695f0fb79b9d418ffc0ae744f5e9479cb8e8c31e73842468182c58ed297cdb64736f6c634300081c0033",
  "linkReferences": {},
  "deployedLinkReferences": {},
  "immutableReferences": {},
  "inputSourceName": "project/contracts/Voting.sol",
  "buildInfoId": "solc-0_8_28-5d4ea5c85d91bb8d892e2ddbd7068dbfce65f4be"
}